:100000000C942A000C9434000C9434000C943400AA
:100010000C9434000C9434000C9434000C94340090
:100020000C9434000C9434000C9434000C94340080
:100030000C9434000C9434000C9434000C94340070
:100040000C9434000C9434000C9434000C94340060
:100050000C94340011241FBECFE5D8E0DEBFCDBF25
:100060000E9436000C9469050C940000CF93DF9336
:10007000CDB7DEB7A0970FB6F894DEBF0FBECDBFE9
:100080006FEF80E00E94CD031A82198200C11C82AA
:100090001B82F3C08B8141E0682F80E00E945A02EE
:1000A00080E090E0A8ECB2E48D839E83AF83B887B4
:1000B00020E030E04AE753E46D817E818F819885AE
:1000C0000E94D404DC01CB018F8B988FA98FBA8F4B
:1000D00020E030E040E85FE36F89788D898D9A8D6C
:1000E0000E944E0488232CF481E090E09C8F8B8F3B
:1000F0003FC020E03FEF4FE757E46F89788D898D4F
:100100009A8D0E94CF0418164CF520E030E040E2B2
:1001100051E46D817E818F8198850E94D404DC0139
:10012000CB01BC01CD010E945304DC01CB019C8FAB
:100130008B8F0FC089E190E09E8F8D8F8D8D9E8D6E
:100140000197F1F79E8F8D8F8B8D9C8D01979C8FE2
:100150008B8F8B8D9C8D892B69F714C06F89788D5F
:10016000898D9A8D0E945304DC01CB019C8F8B8F6B
:100170008B8D9C8D98A38F8F8F8D98A10197F1F710
:1001800098A38F8F60E080E00E94080480E090E0F8
:10019000A8ECB2E489879A87AB87BC8720E030E07F
:1001A0004AE753E469857A858B859C850E94D4044F
:1001B000DC01CB018D879E87AF87B88B20E030E0D4
:1001C00040E85FE36D857E858F8598890E944E04A7
:1001D00088232CF481E090E09A8B898B3FC020E04B
:1001E0003FEF4FE757E46D857E858F8598890E94A4
:1001F000CF0418164CF520E030E040E251E4698568
:100200007A858B859C850E94D404DC01CB01BC01DE
:10021000CD010E945304DC01CB019A8B898B0FC066
:1002200089E190E09C8B8B8B8B899C890197F1F7FE
:100230009C8B8B8B89899A8901979A8B898B898969
:100240009A89892B69F714C06D857E858F85988979
:100250000E945304DC01CB019A8B898B89899A898E
:100260009E8B8D8B8D899E890197F1F79E8B8D8B4F
:100270008B819C8101969C838B838B819C810897C9
:100280000CF408CF89819A8101969A8389838981A8
:100290009A81181619060CF0FACEF6CECF93DF939A
:1002A00000D000D01F92CDB7DEB78B836C834D8317
:1002B00081E090E09A8389838D81813009F073C059
:1002C0008B81882F90E08130910521F1823091055A
:1002D0001CF4892B41F063C08230910591F10397A2
:1002E00009F446C05CC08AE390E02AE330E0E22FE4
:1002F000F32F2081622F2C81422F50E021E030E04B
:1003000002C0220F331F4A95E2F7262BE82FF92F60
:100310002083C6C087E390E027E330E0E22FF32F8D
:100320002081622F2C81422F50E021E030E002C07A
:10033000220F331F4A95E2F7262BE82FF92F20834F
:10034000AFC084E390E024E330E0E22FF32F20817C
:10035000622F2C81422F50E021E030E002C0220FBA
:10036000331F4A95E2F7262BE82FF92F208398C0F8
:1003700081E390E021E330E0E22FF32F2081622F30
:100380002C81422F50E021E030E002C0220F331FC9
:100390004A95E2F7262BE82FF92F208381C01A8295
:1003A000198200007DC08D81882309F077C08B8180
:1003B000882F90E08130910529F1823091051CF45D
:1003C000892B41F067C082309105A1F1039709F4B0
:1003D00049C060C08AE390E02AE330E0E22FF32FC7
:1003E0002081622F2C81422F50E021E030E002C0BA
:1003F000220F331F4A95E2F720952623E82FF92F85
:1004000020834EC087E390E027E330E0E22FF32F14
:100410002081622F2C81422F50E021E030E002C089
:10042000220F331F4A95E2F720952623E82FF92F54
:10043000208336C084E390E024E330E0E22FF32F02
:100440002081622F2C81422F50E021E030E002C059
:10045000220F331F4A95E2F720952623E82FF92F24
:1004600020831EC081E390E021E330E0E22FF32FF0
:100470002081622F2C81422F50E021E030E002C029
:10048000220F331F4A95E2F720952623E82FF92FF4
:10049000208306C01A821982000002C01A821982C3
:1004A00089819A810F900F900F900F900F90DF919C
:1004B000CF910895CF93DF9300D000D01F92CDB796
:1004C000DEB78B836C834D8381E090E09A838983D0
:1004D0008D81813009F073C08B81882F90E081304D
:1004E000910521F1823091051CF4892B41F063C004
:1004F0008230910591F1039709F446C05CC08BE30B
:1005000090E02BE330E0E22FF32F2081622F2C814B
:10051000422F50E021E030E002C0220F331F4A9505
:10052000E2F7262BE82FF92F2083C3C088E390E061
:1005300028E330E0E22FF32F2081622F2C81422F1D
:1005400050E021E030E002C0220F331F4A95E2F76D
:10055000262BE82FF92F2083ACC085E390E025E31C
:1005600030E0E22FF32F2081622F2C81422F50E0C8
:1005700021E030E002C0220F331F4A95E2F7262B1C
:10058000E82FF92F208395C082E390E022E330E04A
:10059000E22FF32F2081622F2C81422F50E021E0A7
:1005A00030E002C0220F331F4A95E2F7262BE82FD6
:1005B000F92F20837EC01A82198200007AC08D81B3
:1005C000882309F076C08B81882F90E081309105D7
:1005D00029F1823091051CF4892B41F067C08230EB
:1005E0009105A1F1039709F449C060C08BE390E045
:1005F0002BE330E0E22FF32F2081622F2C81422F5A
:1006000050E021E030E002C0220F331F4A95E2F7AC
:1006100020952623E82FF92F20834BC088E390E014
:1006200028E330E0E22FF32F2081622F2C81422F2C
:1006300050E021E030E002C0220F331F4A95E2F77C
:1006400020952623E82FF92F208333C085E390E0FF
:1006500025E330E0E22FF32F2081622F2C81422FFF
:1006600050E021E030E002C0220F331F4A95E2F74C
:1006700020952623E82FF92F20831BC082E390E0EA
:1006800022E330E0E22FF32F2081622F2C81422FD2
:1006900050E021E030E002C0220F331F4A95E2F71C
:1006A00020952623E82FF92F208303C01A82198270
:1006B000000089819A810F900F900F900F900F90FA
:1006C000DF91CF910895CF93DF9300D01F92CDB7E4
:1006D000DEB78A836B8319828A81882F90E081300C
:1006E0009105F1F0823091051CF4892B39F04EC050
:1006F0008230910539F10397B9F148C089E390E060
:10070000E82FF92F8081882F90E02B81222F30E075
:1007100002C0959587952A95E2F78170898336C046
:1007200086E390E0E82FF92F8081882F90E02B81DD
:10073000222F30E002C0959587952A95E2F78170C7
:10074000898324C083E390E0E82FF92F8081882FEC
:1007500090E02B81222F30E002C0959587952A9555
:10076000E2F78170898312C080E390E0E82FF92FCF
:100770008081882F90E02B81222F30E002C0959558
:1007800087952A95E2F781708983000089810F900F
:100790000F900F90DF91CF910895CF93DF9300D00A
:1007A000CDB7DEB789836A838981882F90E0813055
:1007B000910599F0823091051CF4892B39F022C003
:1007C0008230910589F00397B1F01CC08AE390E074
:1007D0002A81E82FF92F208315C087E390E02A8132
:1007E000E82FF92F20830EC084E390E02A81E82FC0
:1007F000F92F208307C081E390E02A81E82FF92FA9
:100800002083000000000F900F90DF91CF9108959A
:10081000CF93DF9300D0CDB7DEB789836A83898118
:10082000882F90E08130910599F0823091051CF479
:10083000892B39F022C08230910589F00397B1F0FD
:100840001CC08BE390E02A81E82FF92F208315C08C
:1008500088E390E02A81E82FF92F20830EC085E3FA
:1008600090E02A81E82FF92F208307C082E390E0EF
:100870002A81E82FF92F2083000000000F900F90AD
:10088000DF91CF910895CF93DF931F92CDB7DEB75D
:10089000898380E00F90DF91CF9108950E948204B8
:1008A00008F481E008950E94AE0488F09F5798F004
:1008B000B92F9927B751B0F0E1F0660F771F881F65
:1008C000991F1AF0BA95C9F714C0B13091F00E947F
:1008D000C804B1E008950C94C804672F782F8827C6
:1008E000B85F39F0B93FCCF3869577956795B395A6
:1008F000D9F73EF490958095709561957F4F8F4F15
:100900009F4F0895990F0008550FAA0BE0E8FEEFDE
:1009100016161706E807F907C0F012161306E407C3
:10092000F50798F0621B730B840B950B39F40A26BC
:1009300061F0232B242B252B21F408950A2609F49A
:10094000A140A6958FEF811D811D089557FD9058F8
:10095000440F551F59F05F3F71F04795880F97FB83
:10096000991F61F09F3F79F087950895121613063D
:100970001406551FF2CF4695F1DF08C0161617066C
:100980001806991FF1CF86957105610508940895A1
:10099000E894BB2766277727CB0197F908950E9433
:1009A000820408F48FEF08950E94E7040C94580520
:1009B0000E944A0538F00E94510520F0952311F05D
:1009C0000C9441050C94470511240C94C9040E9411
:1009D000A60470F3959FC1F3950F50E0551F629FD9
:1009E000F001729FBB27F00DB11D639FAA27F00D88
:1009F000B11DAA1F649F6627B00DA11D661F829FAF
:100A00002227B00DA11D621F739FB00DA11D621F93
:100A1000839FA00D611D221F749F3327A00D611DB0
:100A2000231F849F600D211D822F762F6A2F112492
:100A30009F5750409AF0F1F088234AF0EE0FFF1FC5
:100A4000BB1F661F771F881F91505040A9F79E3F1C
:100A5000510580F00C9441050C94C9045F3FE4F308
:100A6000983ED4F3869577956795B795F795E79572
:100A70009F5FC1F7FE2B880F911D9695879597F97B
:100A8000089597F99F6780E870E060E008959FEF10
:100A900080EC089500240A94161617061806090615
:100AA000089500240A9412161306140605060895E4
:100AB000092E0394000C11F4882352F0BB0F40F46C
:100AC000BF2B11F460FF04C06F5F7F4F8F4F9F4FAC
:060AD0000895F894FFCF29
:00000001FF
